:100000000C9414030C945B030C945B030C948631E6
:100010000C945B030C945B030C945B030C945B03E8
:100020000C945B030C945B030C94F9280C94B52896
:100030000C94F4290C945B030C945B030C945B0309
:100040000C945B030C945B030C945B030C945B03B8
:100050000C945B030C94D0290C945B030C945B030D
:100060000C945B030C945B030C945B030C945B0398
:100070000C945B030C945B030C945B030C945B0388
:100080000C945B030C945B030C945B030C945B0378
:100090000C945B030C945B030C945B030C945B0368
:1000A0000C945B030C945B030C945B030501090245
:1000B000A10185020901A100050919012905150001
:1000C00025019505750181029501750381010501E1
:1000D000093009311581257F950275088106093897
:1000E0001581257F950175088106050C0A380215D2
:1000F00081257F950175088106C0C005010980A191
:1001000001850319012AB700150126B7009501756D
:10011000108100C0050C0901A101850419012AA064
:1001200002150126A002950175108100C00660FF2E
:100130000961A1010962150026FF0095207508815B
:10014000020963150026FF00952075089102C0057D
:10015000010906A101050719E029E7150025019508
:1001600008750181029501750881010507190029AB
:10017000FF150026FF009506750881000508190186
:100180002905950575019102950175039101C0003E
:10019000000000000000000000000000000000005F
:1001A000000000000000000000000000000000004F
:1001B0000000007E0F00D4FFFFFFC70000007800A2
:1001C000000000000000002A2B28000000000000B2
:1001D0000000000000000000000029000000002CCA
:1001E0001E3420212224342627252E362D37382769
:1001F0001E1F202122232425263333362E37381F75
:100200000405060708090A0B0C0D0E0F1011121336
:100210001415161718191A1B1C1D2F3130232D35D4
:100220000405060708090A0B0C0D0E0F1011121316
:100230001415161718191A1B1C1D2F3130354CFDBB
:10024000377A585A000004E6D6B446020021011657
:10025000000000742FE5A3E0035B011C5D003D88F6
:1002600089C65436C3174FE4DE89CE3559316D8DBA
:10027000D1EB24603C35CB3260F7F2DFD7394382D3
:100280009177D2FA343CD6949ED06B8EE2DE6BE04E
:10029000C8659AAE5A900BB47174B1D8914B16568A
:1002A00093BA4E2A46AE7805A21EDE76D566C0F910
:1002B000C566752D4ADF16EA18DD28AED753534EB2
:1002C00082C851DD5384D9220764B1D81DD7F662A4
:1002D000D5F0ECEAE3D163A8C5E4E7BCEAD020019D
:1002E00073DB916631B0B12B2EB6F47D4BECC37D40
:1002F00012298C4FB65DD6A3FEB157980BCBB8CA66
:1003000026DDBC4A766867E9523D88D05439ED4015
:1003100010115B2A64180828112F047CFEBDB1FE61
:100320006AAB8EABD61ABCD0EDBDF9230927DB0D25
:10033000F881DA725E5D0F9ED8A69752F73D116D77
:10034000ACF5D316548B83F9025628EE438E10B1C8
:10035000E9FE272C34F29BF783C42A5E9DBEA6FBE0
:100360007163B728A15FDAE107E3D3B601C870690A
:10037000FB3A1937201748B2A19A00BABD440CF2D3
:100380004874620001B802DC060000366C0327B135
:10039000C467FB020000000004595A01000100017B
:1003A0000001000100010001000100010001000145
:1003B0000001000100010001000100010000000037
:1003C0000000000100010001000100010001000126
:1003D0000001000100010001000100010001000115
:1003E0000001000100000000000000010001000108
:1003F00000010001000100010001000100010001F5
:1004000000010001000100010001000100000000E6
:1004100000000001000100010001000100010001D5
:1004200000010001000100010001000100010001C4
:1004300000010001000000000000000100010001B7
:1004400000010001000100010001000100010001A4
:100450000001000100010001000100010000000096
:100460000000000100010001000100010001000185
:100470000001000100010001000100010001000174
:100480000001000100000000000000010001000167
:100490000001000100010001000100010001000154
:1004A0000001000100010001000100010000000046
:1004B0000000000100010001000100010001000135
:1004C0000001000100010001000100010001000124
:1004D00000010001000000000000000100010054C4
:1004E0000400000200020050040000030001005557
:1004F000040000040002003A04FC05050001005657
:10050000040000060002003C040000070002005244
:100510000400000800010057040000090002003E2A
:1005200004D7050A0002004004D7050B0002004270
:1005300004D7050C0002004404D7050D0002004654
:1005400004D7050E0002004804D7050F0002004A38
:1005500004D705100002004C04D705110002004E1C
:1005600004D7051200020058040000130002005ACC
:1005700004000009025B00030100A0FA0904000066
:1005800001030101000921110100012240000705BA
:10059000810308000A090401000203000000092188
:1005A0001101000122220007058203200001070536
:1005B00003032000010904020001030000000921D7
:1005C000110100012281000705840320000A1201A5
:1005D000000200000008ABC239390100010203012A
:1005E0001C037600690061006C003A00660036006A
:1005F00034006300320062003300630000001A031D
:1006000046006500720072006900730020007300EC
:10061000770065006500700000000803440050008A
:10062000420000000403090411241FBECFEFDAE0EA
:10063000DEBFCDBF04B603FE27C080918604909133
:100640008704A0918804B09189048730904BA7401B
:10065000B04BD1F410928604109287041092880453
:100660001092890414BE84B7877F84BF0FB6F894B4
:10067000A89580916000886180936000109260006E
:100680000FBEE0E0F8E3099511E0A0E0B1E0E2ED93
:10069000F7E602C005900D92AA3AB107D9F724E017
:1006A000AAEAB1E001C01D92A638B207E1F70E94A4
:1006B0001B2A0C94B5330C940000FC01AC014C5F78
:1006C0005F4F8FEF91E32191822728E030E087FF91
:1006D00009C0880F892721503109C9F7E417F507A8
:1006E00091F70895880FF7CFE8EDF0E080818E7FD5
:1006F00080831092E2001092DA001092E100A0EEE6
:10070000B0E08C9181608C9380818F77808319BC5D
:10071000A7EDB0E08C918E7F8C9380818F7E80835B
:1007200010926E0408952091E4003091E50095E662
:10073000A9012091EC00822F817020FF06C08091DA
:10074000E80080FF06C080E008952091E80022FDC7
:100750001AC080918404882389F0853089F08091C3
:10076000EB0085FD0FC02091E4003091E5004217B9
:100770005307F9F29150E1F684E0089582E008957C
:1007800083E0089581E00895EF92FF920F931F9305
:10079000CF937C018B010E949303C82F811117C056
:1007A0008091E80085FD0BC08091E8008E778093F2
:1007B000E8000E949303882399F3C82F08C0F7012B
:1007C00081917F018093F1000150110949F78C2F2D
:1007D000CF911F910F91FF90EF900895CF93FC015F
:1007E00080918404843001F5C091E900CF7020919C
:1007F000EC00922F917020FD90E8C92B82E080934D
:10080000E9008091E80080FF0CC050E040E060E229
:1008100070E0CF010E94C4038091E8008E7780933E
:10082000E800CF70C093E900CF91089580917C04D7
:1008300087FF13C08091E80082FF06C08091E80026
:100840008B778093E80004C0809184048111F2CFFB
:100850000895809184048823D9F38091E80080FF73
:10086000F8CF8091E8008E77ECCF982F9093E90035
:10087000242F762F50E0891731F07091EC002091F1
:10088000ED005091F00021FD07C09F5F973071F798
:100890008093E90081E008953091EB003E7F309332
:1008A000EB003091ED003D7F3093ED003091EB0097
:1008B00031603093EB007093EC002093ED00509387
:1008C000F0002091EE0027FDE0CF80E00895CF9268
:1008D000DF92EF92FF920F931F93CF93DF93C8EDB8
:1008E000D0E088818F7E8883E7EDF0E080818160B1
:1008F000808384E082BF81E080936E0488818E7F54
:10090000888302EE10E0F80110821092DA0081EE86
:10091000C82ED12CF601108288818F778883888138
:100920008068888388818F7D888319BC10928404B5
:1009300010927B0410927A041092790490EEE92EC2
:10094000F12CF70180818B7F80838881816088838F
:1009500042E060E080E00E943504F60180818E7FF5
:100960008083F801808181608083808188608083BA
:10097000F70180818E7F8083888180618883DF9109
:10098000CF911F910F91FF90EF90DF90CF9008953E
:10099000FC01809182049091830486179707A0F050
:1009A0006115710529F49091E8009E779093E80015
:1009B00090E06115710551F4911108C08091E80033
:1009C00082FF34C080E00895BC01F2CF809184049E
:1009D0008823C1F18530C1F18091E80083FD30C0EA
:1009E0008091E80082FDEACF8091E80080FFE1CFAE
:1009F0008091F3002091F200382F6115710519F0F4
:100A00002830310558F091E02830310509F090E0A8
:100A10002091E8002E772093E800CBCF819180933E
:100A2000F100615071092F5F3F4FE7CF809184043F
:100A3000882341F0853041F08091E80083FFBECFEC
:100A400081E0089582E0089583E008958091700424
:100A5000089587E797E7909301088093000888E15D
:100A60009AE00FB6F894A895809360000FBE90931B
:100A70006000FFCF9C014FB7F8948091670490917C
:100A80006804A0916904B0916A044FBF821B930B64
:100A900008952FB7F894609167047091680480916D
:100AA000690490916A042FBF08952FB7F89480913C
:100AB000670490916804A0916904B0916A042FBF03
:100AC000089520916404309165042817390771F066
:100AD0009093650480936404E0916204F091630450
:100AE000309721F00084F185E02D0994089520913C
:100AF0006004309161042817390771F09093610404
:100B000080936004E0916204F0916304309721F0D7
:100B10000680F781E02D09940895452B39F068236C
:100B200081E06F3F09F080E08170089581E0FCCFA3
:100B3000DC016091820380918303962F891301C0A9
:100B40000895292F30E0F901EE0FFF1FE658FC4F02
:100B5000408151814A175B07A1F487E08A9FA00179
:100B60008B9F500D11244E5B5C4F81E0FA01848312
:100B70009613E6CF2F5F3F4F2370332720938203D6
:100B800008952F5F3F4F922F9370D8CF1092DF02BE
:100B90001092DE02E2E4F3E08581811102C014824A
:100BA0001682379683E0EA37F807B1F70895EAE34B
:100BB000F4E0848195812AE030E0B9010E9400339D
:100BC00060935901868180935801828580935701F3
:100BD00084858093560186859785B9010E940033EC
:100BE00060935501808980935401828980935301D9
:100BF000848980935201089580913A0490913B0436
:100C000090935C0180935B0108950E9455059C01BF
:100C100090916F0280917002982B21F030936C02BA
:100C200020936B029091710280917202982B21F0B7
:100C300030936A0220936902E0916204F0916304A8
:100C4000309749F082E080936D020480F581E02DB9
:100C50008DE692E00994089590916F02803F59F4D7
:100C60008091700287FF0DC01092700291110BC02D
:100C70001092670208C0813F81F4809170021816BB
:100C80009CF3992381F08091710290917202892BDB
:100C900009F064C0109266020895823F49F497FFFC
:100CA000F0CF10926F02809170028111ECCFE0CFF3
:100CB000833F19F41916ACF3E4CF20917102893FF8
:100CC00029F41216F4F610927102DBCF8A3F19F460
:100CD00027FFD7CFF8CF209172028B3F29F427FF4F
:100CE000D0CF10927202CDCF8C3F19F41216CCF3F4
:100CF000C8CF843F31F480916E028E7F80936E0264
:100D0000C0CF853F21F480916E028D7FF7CF863F63
:100D100021F480916E028B7FF1CF873F21F4809187
:100D20006E02877FEBCF883F21F480916E028F7E29
:100D3000E5CF8D3F31F4809168028E7F8093680209
:100D4000A0CF8E3F21F4809168028D7FF7CF8F3F37
:100D500009F097CF809168028B7FF0CF0895809142
:100D6000680280FF0CC06091530170E07595679533
:100D7000759567956115710549F1862F089581FF75
:100D800006C06091530170E075956795F3CF60914F
:100D9000530182FD0BC0909166029923A1F06091EE
:100DA000520180915301961738F0682F70E0603837
:100DB000710500F38FE70895899FC001112470E049
:100DC0000E941433F4CF61E070E0D7CF81E0089542
:100DD00080916802609142047091430480FF16C0C4
:100DE00020915701269FC001279F900D1124BC011F
:100DF00076956795769567956038710508F043C0DC
:100E00006115710509F441C0862F089581FF0BC05B
:100E100020915701269FC001279F900D1124BC01EE
:100E200076956795E9CF82FF09C0809157019B01B4
:100E3000829FB001839F700D1124DECF2091670245
:100E40002223D1F29091560180915701482F50E012
:100E5000291748F0CB01849FB001859F700D949FA6
:100E6000700D1124C9CF289F90011124269FA00145
:100E7000279F500D369F500D1124692F70E0CA0135
:100E80000E940033B9CF8FE7089581E00895803F35
:100E900031F40E94E8068195809370020895813FA5
:100EA00019F40E94E806F8CF823F31F40E94E80668
:100EB000819580936F020895833F19F40E94E8069C
:100EC000F8CF893F29F40E94AF06809371020895FC
:100ED0008A3F21F40E94AF068195F7CF8B3F31F412
:100EE0000E94AF0681958093720208958C3F19F499
:100EF0000E94AF06F8CF843F31F480916E0281608A
:100F000080936E020895853F21F480916E02826085
:100F1000F7CF863F21F480916E028460F1CF873F46
:100F200021F480916E028860EBCF883F21F480919C
:100F30006E028061E5CF8D3F31F48091680281605F
:100F40008093680208958E3F21F480916802826048
:100F5000F7CF8F3FB9F7809168028460F1CF80E0CE
:100F600008959091400292FF06C0282F28712830E2
:100F7000F9F4877F846093FF06C0282F28712831F9
:100F8000F1F4877E84612091410220FF06C0382F52
:100F900038713830D9F4877F816021FF06C0282F4F
:100FA00028712831D1F4877E816194FD877E089570
:100FB000282F24712430F9F68B7F8860DCCF282F0E
:100FC0002471243101F78B7E8861DDCF382F317198
:100FD000313019F78E7F8860E0CF282F21712131C1
:100FE00021F78E7E8861E1CFCF93DF93EC018238C9
:100FF0009105A9F1D8F58133910509F496C048F51A
:101000008932910509F48AC08A9709F495C0C115FF
:1010100021E5D20708F0BCC0C11530E5D30708F0C0
:1010200014C1C83ED10508F09CC0C03ED10560F592
:10103000C83AD10508F087C0C53AD10508F0FDC00F
:10104000C130D10509F12097F9F0C430D105E0F4A1
:1010500040C08533910509F45AC0C997C1F6809103
:101060004002837089F0C0EED0E00EC0833E91054F
:1010700099F170F4803E910501F1823E910539F6B7
:101080008091400282FD21C0CE01DF91CF91089571
:10109000863E910561F1873E910571F1843E91058F
:1010A00009F0B5CF8091410281FFEECF80914002DF
:1010B000C7EED0E084FD0DC0E7CF8091400280FDF7
:1010C00012C19091410290FFDFCFC3EED0E084FFC8
:1010D000DBCFD0E0C0E0D8CF8091400282FD06C1D6
:1010E0009091410290FDBFCF84FFCECFF2CF80918F
:1010F000400283FDDDCFC8CF8091400283FDF9C05F
:101100009091410291FFF0CFC4EED0E0BDCF80912D
:10111000400285FFB9CFC9E2D0E0B6CF809140024E
:1011200085FFB2CFC5E3D0E0AFCF8091400286FF0C
:10113000ABCFCAE2D0E0A8CF8091400286FFA4CF17
:10114000C1E3D0E0A1CFCF3BD10518F6C85AD0E01B
:10115000CC0FDD1FC659DE4F0990D881C02DD46455
:1011600093CFC11540E2D40758F4C11581E0D807E8
:1011700008F08ACFC03FD10508F4ABCFD06584CF4B
:10118000C11590E4D90708F4A4CFDF70D06A7CCFF2
:10119000C11525E5D20700F5C11534E5D30708F0E0
:1011A0008AC0C11543E5D40708F071C0C11582E5B6
:1011B000D80708F467C0CE018370992721E030E09A
:1011C00002C0220F331F8A95E2F7C695C69580E2CA
:1011D000C89FE001112452C0C11599E5D907A8F4B0
:1011E000C11528E5D20708F06BC0C11536E5D30755
:1011F00008F06FCF8C2F0E94B107C82FD0E0DC2FF2
:10120000CC27CC27DF71D0623FCFC1154AE5D40788
:1012100008F45BC0CE0190568115904208F059CF7A
:101220008D2F8F710E94B10790E0982F8827882713
:101230009F719C012C2BE901E6CFC55AD0E0C9591A
:10124000DE4FC881D0E0D0641FCFCE01E4E0969598
:101250008795EA95E1F783702C2F269526952370C4
:1012600040E2249F90011124382B8C2F8370C1E021
:10127000D0E002C0CC0FDD1F8A95E2F7C22BD32B42
:10128000DC6802CFDC2FCC27C16FD06AFDCECE0147
:101290008370992721E030E002C0220F331F8A9526
:1012A000E2F7C695C69590E2C99FE0011124C22BD2
:1012B000D32BDA68E9CEDC2FCC27C46FD06AE4CE1A
:1012C000DC2FCC27C06FD06ADFCE8C2F8F700E94AE
:1012D000B10734E0D695C7953A95E1F7CF709C2FCA
:1012E000EC01D069D1CEC9E3D0E0CECEC2EED0E0E1
:1012F000CBCEC6EED0E0C8CE80911A02882331F062
:1013000010921A02109219021092180208958095F4
:101310009091390498239093390408958095909181
:10132000380498239093380408951092160210926E
:10133000150210921402089580913C0490913D048E
:10134000892B89F00E9455052091180230911902CD
:10135000AC01421B530B81E020913C0430913D04D1
:101360004217530708F480E0817008958091380493
:1013700090913904892B90911702892B8093AC01AD
:1013800080911A02882309F180913C0490913D04D8
:10139000892B29F00E949C0981110E947C0980916F
:1013A000AC0190911A02892B8093AC0120E08EEA67
:1013B00091E0FC013191CF0131112F5FF1E0843BCD
:1013C0009F07B9F721110E947C09E0916204F09116
:1013D0006304309731F00280F381E02D8CEA91E0D4
:1013E00009940895CF93DF93EC0181E0898B80917C
:1013F00038049F81892B8093380480913904988523
:10140000892B809339040E94B609EA81FB813097C9
:1014100039F06C897D89CE010696DF91CF910994D0
:10142000DF91CF910895EF92FF920F931F93CF9387
:10143000DF93EC018A85811134C0EB80FC8087E565
:10144000F81A26E12E9DC0012F9D900D1124DC017C
:10145000A857BC4F1496ED91FC911597309731F039
:1014600054966D917C9182579C4F099586E18E9D93
:1014700080018F9D100D112408571C4FF8018781A2
:101480000E948E09F80180850E9487090E94B60992
:10149000188219861B861E821D8210928703109265
:1014A0008603DF91CF911F910F91FF90EF900895E8
:1014B000809113028111109213020895EEEAF1E077
:1014C0009191891303C0DF0111971C9291E0E43BD5
:1014D000F907B1F70895AEEAB1E0EFEF90E02D9192
:1014E000821751F0EF3F19F4211101C0E92F9F5FDE
:1014F0009630A9F7EF3F09F408950E2E000CFF0B6C
:10150000E455FE4F82830895209112029091D101FB
:10151000291302C080E0089530E0F90153E0EE0F96
:10152000FF1F5A95E1F7EE52FE4F5181561306C048
:101530005081581303C05281541304C02F5F3F4F92
:101540002770E6CF81E00895809112029091D10139
:10155000981301C008958F5F8770FACF9E3F51F1B5
:10156000292F220F220FE22FE90FE80F9E2F9770ED
:10157000E695E695E69583E0E89FF0011124E654B0
:10158000FE4F50E040E080E0219130E0092E02C0A3
:10159000369527950A94E2F721703327042E01C06F
:1015A000220F0A94EAF7822B4F5F5F4F43305105B9
:1015B00059F7089580E008959E3F71F1292F220F79
:1015C000220FE22FE90FE80F8E2F877041E001C054
:1015D000440F8A95EAF7E695E695E69583E0E89F5D
:1015E000F0011124E654FE4F30E020E070E051910C
:1015F000DF011197CB01022E02C0969587950A94C0
:10160000E2F7817081958527842385278C932F5F4E
:101610003F4F2330310559F70895E92FE295EF70D8
:10162000E250EE3070F4F0E0E954FC4C0C942833B6
:10163000803F19F020F4883E20F481E00895843F33
:10164000E1F380E00895883EC0F3813FD1F7F5CF04
:1016500093FB882780F9089590E080E00E94770549
:1016600090E080E00E946105109239041092170208
:101670000E94B60986E0EDE6F2E0DF011D928A9550
:10168000E9F71092670210926602109268020C94B9
:101690000506809385040C942C0B80918504982F6B
:1016A0009670963019F488600C94490B877FFCCFB4
:1016B00021E030E001C0220F8A95EAF72095809161
:1016C000850482230C94490B9091160280958923FE
:1016D00080931602282F277039F4282F082E000C2B
:1016E000330B9217130621F49091410292FF07C029
:1016F0008595859585950E94580B0C9495090895BC
:1017000021E030E001C0220F8A95EAF7809185043C
:10171000822B0C94490B9091410292FD10C098E0ED
:10172000899F90011124622B609316020E94800B06
:101730000E945505909315028093140208950C940D
:10174000800B80931B020C942C0B882321F00E94A9
:1017500087090C94B6090895882339F090913904CB
:10176000982B909339040C94B6090895882321F09E
:101770000E948E090C94B6090895882339F090913F
:101780003804982B909338040C94B60908959C0162
:101790003A9521153F4150F5FC01EE27F170BC014F
:1017A00066277270AC01442754709C012227387060
:1017B00094FF0EC080E1EF2B09F480E0672B09F065
:1017C0008062452B09F08064232B89F0806808959E
:1017D00081E0EF2B09F480E0672B09F08260452B54
:1017E00009F08460232B19F08860089580E0089543
:1017F00090918404943029F580936B0470936D0468
:1018000060936C049093E9008FEF9091E800815011
:1018100095FD06C095ED9A95F1F700008111F5CF81
:101820008091E80085FF0DC050E040E063E070E08B
:101830008BE694E00E94C4038091E8008E77809349
:10184000E8000895BC0184E00C94F80BBC0183E02F
:101850000C94F80B9C0184E08093E9009FEF809149
:10186000E800915085FD06C085ED8A95F1F70000EE
:101870009111F5CF8091E80085FF0CC050E040E069
:1018800066E070E0C9010E94C4038091E8008E7791
:101890008093E8000895CF93DF93EC0181E080937B
:1018A000E9008FEF9091E800815095FD06C095ED1D
:1018B0009A95F1F700008111F5CF8091E80085FF3E
:1018C00014C050E040E068E070E0CE010E94C40324
:1018D0008091E8008E778093E80088E0FE01A1E720
:1018E000B4E001900D928A95E1F7DF91CF910895D0
:1018F000019708F40895EFE9FFE03197F1F700C090
:101900000000F6CFAF92BF92CF92DF92EF92FF929C
:101910000F931F93CF93DF937C015B016A0180914A
:101920003B0201E010E08A3010F40AE010E0C1E070
:10193000D0E0F894B501C701F601099578948111BA
:1019400004C021960C171D075CF4DF91CF911F9105
:101950000F91FF90EF90DF90CF90BF90AF900895E0
:10196000CC9F9001CD9F300D300D112490E080E090
:1019700045E34A95F1F70000019682179307C1F7F6
:10198000D8CF80912502811110C08091D80080614C
:101990008093D8008AE18A95F1F700C08091D90040
:1019A00080FF0AC081E08093250281E090912502AA
:1019B000913009F080E0089582E0809325020E9432
:1019C000740310928404F1CF0E94C10C882351F05B
:1019D000E0916204F0916304309721F00190F0816E
:1019E000E02D099480E00895882309F452C08238DC
:1019F00071F40E94E40C81FF4CC089E30E946B0AE1
:101A00000E94B60989E30E945E0A0C94B6098338E5
:101A100059F40E94E40C80FF3CC083E50E946B0AED
:101A20000E94B60983E5EFCF843859F40E94E40C94
:101A300082FF2FC087E40E946B0A0E94B60987E4E8
:101A4000E2CF9CEF980F913AF0F290E2980F983025
:101A500050F4877091E001C0990F8A95EAF7892FB9
:101A60000E948E09D2CF9BE5980F933020F490E02E
:101A700080E00C94770598E5980F973120F490E07A
:101A800080E00C946105803F20F00E942C060C94AD
:101A900005060895CF93DF93EC010E94F40CCE016C
:101AA0000E94C70B9E01205E31092830310510F0DD
:101AB000CD2B21F4DF91CF910C94B60BDF91CF9118
:101AC0000C94A50BCF93C82F882309F490C08238BB
:101AD000C1F40E94E40C81FD8AC089E30E946B0A74
:101AE0000E94B6092FEF81EE94E021508040904093
:101AF000E1F700C0000089E30E945E0ACF910C94D8
:101B0000B6098338A1F40E94E40C80FD70C083E51F
:101B10000E946B0A0E94B6092FEF81EE94E02150DB
:101B200080409040E1F700C0000083E5E5CF8438B5
:101B3000A1F40E94E40C82FD5AC087E40E946B0A63
:101B40000E94B6092FEF81EE94E021508040904032
:101B5000E1F700C0000087E4CFCF8CEF8C0F813A13
:101B600068F4EEEAF1E08191C817D9F121E0E43B95
:101B7000F207C9F78C2F0E946B0AC0CF80E28C0F4E
:101B8000883068F4C77021E030E001C0220FCA95A8
:101B9000EAF780913804822B80933804AFCFEBE5CD
:101BA000EC0FE33040F4F0E0E959FE4F808190E023
:101BB000CF910C947705E8E5EC0FE73150F4F0E0B5
:101BC000EE0FFF1FE659FE4F80819181CF910C945B
:101BD0006105C03F60F08C2F0E944707CF910C94A5
:101BE00005068C2F0E945E0A0E94B609C3CFCF91D2
:101BF0000895FF920F931F93CF93DF938C01EB0116
:101C0000F42E80915D0182FF43C08B7F80935D0144
:101C100080915C0420915E0430915F04AB01421B13
:101C2000530B9A0140915B0150915C0124173507D9
:101C3000A8F40E94620D80915D018D7F80935D010B
:101C400080915804909159040E94780C80915C0412
:101C50000E94F40C82E00E94870924C0909139040C
:101C60009260909339040E94620D80915D018260C0
:101C700080935D018091550485FFE2CF86FDE0CF22
:101C8000FF20F1F2DF91CF911F910F91FF90089506
:101C9000802F0E94F40C80915C0490915D04801769
:101CA0009107C1F20E94B609D0935F04C0935E040D
:101CB000E9CF1F93CF93DF93182FC0915A04D0918F
:101CC0005B04893321F0C0915804D0915904812FCD
:101CD0000E94620D209731F4812FDF91CF911F91E7
:101CE0000C94F40C8FE99FE00197F1F700C000001D
:101CF0002197F0CF0F931F93CF93DF93C42FD22F51
:101D0000FC0182818823A1F04093DD020E945505E9
:101D10009093DC028093DB02C77081E001C0880FE2
:101D2000CA95EAF7DF91CF911F910F910C94BD0BEB
:101D30001091DD02141339C08091DB029091DC0216
:101D40000E943A0520915204309153048217930760
:101D500060F5C0E2CD0F1D17B9F080E2810F883029
:101D600040F4177081E001C0880F1A95EAF70E94CD
:101D7000B60BC83048F481E09D2F977001C0880FE2
:101D80009A95EAF70E94BD0B802F0E94590EC83029
:101D900098F4D77081E001C0880FDA95EAF7DF91F7
:101DA000CF911F910F910C94B60BC77081E001C0C9
:101DB000880FCA95EAF7F3CFDF91CF911F910F916A
:101DC0000895DF92EF92FF920F931F93CF93DF93CB
:101DD000E82FF0E0E154FE4FD490282F2695269569
:101DE000269530E0F901E155FE4F0491877010E02F
:101DF000082E02C0159507950A94E2F70170112785
:101E0000F901E156FE4FE490F12C082E02C0F59442
:101E1000E7940A94E2F791E0E922FF24F901E157FF
:101E2000FE4FC491D0E002C0D595C7958A95E2F7E0
:101E3000C170DD270115110519F081EE0E94620DB8
:101E4000E114F10419F086EE0E94620D8D2D0E94BE
:101E5000590EEF2819F086EE0E94F40C012B19F0B0
:101E600081EE0E94F40CCD2B51F08CE2DF91CF91EA
:101E70001F910F91FF90EF90DF900C94590EDF911E
:101E8000CF911F910F91FF90EF90DF900895CF9326
:101E9000DF93EC010E94C70B9E01205E31092830C0
:101EA000310510F0209739F40E94BD0B8C2FDF9183
:101EB000CF910C94620D0E94AC0BF8CF1F93CF937F
:101EC000DF93EC011AE08881882309F43EC0813059
:101ED000C9F599818A81913029F422960E94590E80
:101EE0002196F1CF923021F422960E94620DF8CF14
:101EF000933021F422960E94F40CF2CF943011F02A
:101F00002196EECF229630E020E0AE014F5F5F4F8A
:101F10008053990B8A30910550F02150310900F31C
:101F20008FE99FE00197F1F700C00000F6CF129F04
:101F3000B001139F700D11249C01260F371F89815A
:101F4000EA01E3CF0E94E10ECBCFDF91CF911F9149
:101F500008950F931F93CF93DF930AE314E0C7E62E
:101F6000D1E0CE010E946B33F80181938F0121965D
:101F7000C938F1E0DF07A9F7C1EED4E0FE01859191
:101F80009491009711F0FC0109952896F5E0C93766
:101F9000DF07A1F7DF91CF911F910F9108950F9364
:101FA0001F93CF93DF93843030F5683020F54530B0
:101FB00010F5C42FD0E0CC0FDD1F2AE0629FC00DCA
:101FC000D11D112430E5839FC00DD11D1124CE01F8
:101FD00087960E946B33082F10E0102F0027CE0148
:101FE00088960E946B339801282BC901DF91CF910D
:101FF0001F910F91089590E080E0F8CF462F209137
:10200000D9023091DA02232B91F47E3F39F46E3FEE
:1020100071F48091D7029091D8020895843038F4F9
:10202000783028F4653018F4672F0C94CF0F90E0C7
:1020300080E00895CF92DF92FF920F931F93CF938A
:10204000DF936C010091850480911B02082BC7E08F
:10205000D0E010E0FC2EC8010C2E02C095958795AB
:102060000A94E2F780FD0CC02197A0F7F12C8F2D88
:10207000DF91CF911F910F91FF90DF90CF90089546
:10208000B6018C2F0E94FE0F0E94F407019761F3A6
:10209000EECFCF93DF93EC010E941A10BE010E9495
:1020A000FE0FDF91CF910C94F407FC01868197819C
:1020B000009721F00E94F4070C940D0B8081918110
:1020C0000E944910F9CF1F93CF93DF9300D000D027
:1020D0000F92CDB7DEB749835A8389819A816623EF
:1020E000B9F02223A9F00E941A10182F682F8981B5
:1020F0009A810E94DC0A69817A81812F0F900F906A
:102100000F900F900F90DF91CF911F910C94FE0FC5
:102110000E94AE0A182FEFCFFC01262F86819781EF
:10212000009739F4408151816281738184810C94DC
:102130006310089583E290E00E946B33853289F446
:1021400084E290E00E946B338C3C59F485E290E08D
:102150000E946B3391E08B3B09F090E0892F8170F6
:10216000089580E0FCCFCF9384E090E00E946B3331
:10217000C82F82E290E00E946B33982F8C2FCF9172
:1021800008950F931F93CF93DF930AE314E0C7E6FC
:10219000D1E0CE010E946B33F80161918F01681785
:1021A00019F0CE010E9479332196C938F1E0DF079A
:1021B00081F7DF91CF911F910F910895EAE3F4E049
:1021C000128E138E8FEA90E09183808385E0848F56
:1021D00088E893E1938382834CE251E05583448302
:1021E00022E330E03783268385E090E09187808783
:1021F0008AE090E09387828764E170E07587648766
:102200005787468744E650E0518B408B48E050E0CA
:10221000538B428B48E250E0558B448B378B268B97
:1022200028EC30E0318F208F158E978F868F80E5D8
:1022300090E091A380A30E94C1100C94A90FCF93AA
:10224000DF93C9E2D2E060E0CE010E9479332196AB
:10225000C11584E0D807B9F7DF91CF9108950F93A6
:102260001F93CF93DF938901843048F5683038F5A8
:10227000453028F521153C4531F42091D5023091A7
:10228000D602232BE1F0C42FD0E0CC0FDD1F9AE063
:10229000699FC00DD11D112490E5899FC00DD11DEE
:1022A0001124612FCE0187960E947933602FCE01D1
:1022B0008896DF91CF911F910F910C947933DF9124
:1022C000CF911F910F910895CF93C82F6FEF811178
:1022D00065E283E290E00E9479336FEFC1116CEC0C
:1022E00084E290E00E9479336FEFC1116BEB85E2DD
:1022F00090E0CF910C947933CF93C0914102C2FB0F
:10230000992790F9981781F080FBC2F9C093410298
:102310006091400284E090E00E9479336C2F82E269
:1023200090E0CF910C947933CF9108957F928F9262
:102330009F92AF92BF92CF92DF92EF92FF920F9354
:102340001F93CF93DF93CDB7DEB764970FB6F894A2
:10235000DEBF0FBECDBFA090D502B090D60281E007
:1023600090E09093D6028093D5028BE9C82E83E04B
:10237000D82E00E0760110E015C0F40125913491CB
:10238000472D612F802F0E942F1182E0880E911C13
:102390007394E5E07E12F1CFFAE0EF0EF11C1F5FBF
:1023A000183019F04701712CE8CF0F5F80E5C80E97
:1023B000D11C0430F9F60E94DE101A8219821C82A8
:1023C0001B821E821D8218861F8288EC90E09A87ED
:1023D000898709E811E04AE050E0B801CE01019692
:1023E0000E949D33065F1F4F093DE1E01E0799F7EC
:1023F0007E01FBE0EF0EF11C8AE0F70111928A9555
:10240000E9F74AE050E0B801C7010E949D33065F3A
:102410001F4F0932F2E01F07A1F7B092D602A09237
:10242000D50264960FB6F894DEBF0FBECDBFDF9124
:10243000CF911F910F91FF90EF90DF90CF90BF90C1
:10244000AF909F908F907F90089580E00E946411DC
:1024500060E086E290E00E9479330E9496110E942B
:102460001F1181E00C9464119B01883070F49AE094
:10247000899FB001112467577E4F4AE050E0C9019F
:102480000E945B3390E080E008958FEF9FEF089506
:102490008F929F92AF92BF92CF92DF92EF92FF9274
:1024A0000F931F93CF93DF93CDB7DEB72A970FB665
:1024B000F894DEBF0FBECDBF08E813E0F12CE12C8D
:1024C0008FE0C82E88E2D82E99E3A92E98E2B92E83
:1024D00028E7822E27E2922EF801D182C082B382B1
:1024E000A28295828482F58AE48ABE016F5F7F4F63
:1024F0008E2D0E943412892B29F489859A85F80142
:10250000938B828BFFEFEF1AFF0A0A5E1F4F88E062
:10251000E816F10409F72A960FB6F894DEBF0FBE4D
:10252000CDBFDF91CF911F910F91FF90EF90DF9082
:10253000CF90BF90AF909F908F900895CF92DF92F1
:10254000EF92FF920F931F93CF93DF93CDB7DEB738
:102550002A970FB6F894DEBF0FBECDBFE5E8F2E0D4
:1025600080E5DF011D928A95E9F7E2E4F3E088E374
:10257000DF011D928A95E9F785E8C82E82E0D82E02
:102580007F0109ED11E0F701D182C0824AE050E0FD
:10259000B801CE0101960E945B3388E0FE013196BE
:1025A000D60101900D928A95E1F789859A85D70128
:1025B00013969C938E931297BAE0CB0ED11CE7E052
:1025C000EE0EF11C065F1F4F0932F2E01F07D9F62D
:1025D0002A960FB6F894DEBF0FBECDBFDF91CF9124
:1025E0001F910F91FF90EF90DF90CF900895109280
:1025F0003804EEEAF1E086E0DF011D928A95E9F702
:102600000C942C0B1F93CF93DF93CDB7DEB7AA9713
:102610000FB6F894DEBF0FBECDBF8CE794E02091DB
:10262000F100DC012D93CD01B4E084389B07B9F7AC
:1026300080917D04833009F471C0B8F4813009F4CD
:1026400048C0823009F4B2C08091E80083FF3AC1EB
:1026500080917C0490917D049A3008F033C1E92F79
:10266000F0E0EB53FC4C0C9428338A3009F48DC015
:102670008B3009F470C0893039F780917C04813245
:1026800019F78091800490918104009711F00297CE
:10269000D9F68091E800877F8093E8008091E80078
:1026A00082FF37C09091F3008091F200029729F4E5
:1026B0008091F1008B7F813021F48091F100809333
:1026C00070048091E8008B778093E8000E941604E4
:1026D000BBCF80917C04813A09F0B6CF8091E800AD
:1026E000877F8093E8008091800490918104892BFA
:1026F00061F468E081E794E070E00E94C804809192
:10270000E8008B778093E8009FCF60E090E080E066
:10271000F3CF809184048111C1CF96CF80917C0446
:10272000813A09F091CF8091800490918104892BA6
:1027300009F08ACF8091E800877F8093E80080913C
:10274000E80080FFFCCF80915E018093F1008091D2
:10275000E8008E77B9CF80917C04813209F074CF84
:102760008091800490918104892B09F06DCF809134
:10277000E800877F8093E8000E94160480917E0421
:1027800080935E010E94F7125FCF80917C048132BA
:1027900009F05ACF8091E800877F8093E8000E947B
:1027A000160480917F0480936F044ECF80917C0447
:1027B000813A09F049CF8091E800877F8093E80053
:1027C0008091E80080FFFCCF80916F04BECF8038FD
:1027D00099F0823809F076C0809180048F7087303C
:1027E00008F070C08093E9008091EB0085FB88279A
:1027F00080F91092E90006C08091790490917A04E2
:10280000911182609091E800977F9093E800809307
:10281000F1001092F1008091E8008E77C0C188230A
:1028200009F4ADC1823009F04DC080917E04811160
:10283000B1C1809180048F702FEF280F263008F0EF
:1028400041C08093E9002091EB0020FFA3C19330A9
:1028500031F48091EB0080628093EB009BC19091FA
:10286000EB0090619093EB0021E030E001C0220F7B
:102870008A95EAF72093EA001092EA008091EB0033
:102880008860EACF81111EC010917E041F7780916D
:10289000E3008078812B8093E3008091E800877FBC
:1028A0008093E8000E9416048091E80080FFFCCF2E
:1028B0008091E30080688093E30082E0111183E05F
:1028C000809384048091E80083FF0AC08091E8002F
:1028D000877F8093E8008091EB0080628093EB001B
:1028E000AA960FB6F894DEBF0FBECDBFDF91CF9191
:1028F0001F9108958058823028F720917E043091EE
:102900007F042C3DE3E03E07A1F583E08A838AE261
:1029100089834FB7F894DE01139620E03EE051E240
:10292000E32FF0E050935700E49120FF03C0E295BD
:10293000EF703F5FEF708E2F90E0EA30C0F0C796E7
:102940008D939D932F5F243159F74FBF8091E800FD
:10295000877F8093E8006AE270E0CE0101960E94D2
:10296000C8048091E8008B778093E800ABCFC096D5
:10297000E7CF8091800490918104432F5527433005
:10298000510509F44AC078F54130510509F485C074
:102990008BE590E0E3E7F5E04230510509F092CF96
:1029A0002091E800277F2093E80020918204309155
:1029B00083048217930708F49C0140E02115310538
:1029C00009F070C041116EC08091E80082FDC9CF4E
:1029D00080918404882329F2853019F28091E800DF
:1029E00083FFF2CFBECF4132510509F447C04232D6
:1029F000510509F067CF8330910508F063CFFC01E2
:102A0000EE0FFF1FE356FE4F0190F081E02D86563A
:102A10009E4FDC018C9190E01DC0332721303105A1
:102A2000E9F02115310579F022303105F9F0233034
:102A3000310509F047CFE0EEF5E0E4918E2F90E00C
:102A4000E0EEF5E007C0E4E2F6E0E4918E2F90E0DE
:102A5000E4E2F6E0009709F435CFA2CFEAE1F6E030
:102A6000E4918E2F90E0EAE1F6E0F4CFEEEFF5E0AE
:102A7000E4918E2F90E0EEEFF5E0ECCF83309105FE
:102A800008F020CF880F991FFC01ED55FE4F0190F3
:102A9000F081E02D89E090E083CF82E190E0EEECE0
:102AA000F5E07ECF80918404882309F45ACF8530E5
:102AB00009F457CF8091E80083FD53CF8091E8005F
:102AC00082FD82CF8091E80080FF78CF9091F30063
:102AD0008091F2002115310519F08830910550F0F0
:102AE00041E0089709F040E08091E8008E778093FC
:102AF000E80064CF44914093F100319621503109B0
:102B00000196E8CF803809F0DDCE8091E800877F1C
:102B10008093E80080917B048093F1007CCE81114A
:102B2000D1CE10917E04123008F0CCCE8091E80016
:102B3000877F8093E80010937B040E941604112382
:102B400011F084E005C08091E30087FDFACF81E0B9
:102B50008093840442E061EC81E00E94350442E20B
:102B600061EC84E00E94350442E261EC82E00E9464
:102B7000350442E260EC83E00E943504A3CE8091EC
:102B80007E04813009F09ECE81E0933009F080E030
:102B900080937A041092E9008091E800877F809307
:102BA000E8000E9416048ECE0F931F93CF93DF93FD
:102BB00000D000D0CDB7DEB7409137025091380237
:102BC0006091390270913A022FB7F89480916704AE
:102BD00090916804A0916904B0916A042FBF841B8E
:102BE000950BA60BB70B84369105A105B10588F1AD
:102BF0000E94C10C882379F10E9449056E5F7F4FC6
:102C00008F4F9F4F69837A838B839C8380911801B8
:102C100090911901825D9D4F4091170150E0453020
:102C2000510510F044E050E0BE016F5F7F4F0E94FD
:102C30004B3382E090E00E944C32892BD9F40E9401
:102C4000490560933702709338028093390290935C
:102C50003A0281E010C00E94490500913C021091A7
:102C60003D0220913E0230913F02600F711F821F92
:102C7000931FC4CF80E00F900F900F900F90DF91C3
:102C8000CF911F910F9108950F931F93CF93DF93CF
:102C900000D000D00F92CDB7DEB78B0190E080E07E
:102CA0000E944C32892B09F085C04091060150E00A
:102CB0004115510511F041E050E06091070170911C
:102CC0000801625D7D4FCE0105960E944B33409115
:102CD0002A0250912B0260912C0270912D022FB785
:102CE000F8948091670490916804A0916904B09170
:102CF0006A042FBF841B950BA60BB70B8436910576
:102D0000A105B10540F48FE292E00E945D039D8130
:102D1000891709F45FC081E090E00E944C32892B52
:102D2000C1F080E040912602509127026091280274
:102D300070912902F80140835183628373830F905D
:102D40000F900F900F900F90DF91CF911F910F91E7
:102D500008954091100150E04530510510F044E0D5
:102D600050E06091110170911201625D7D4FCE01C2
:102D700001960E944B338FE292E00E945D039D8199
:102D80008913CFCF0E94490560932A0270932B02CA
:102D900080932C0290932D0289819A81AB81BC8112
:102DA0008093260290932702A0932802B0932902D1
:102DB00081E0B8CF80E040912F02509130026091C5
:102DC00031027091320249835A836B837C83811173
:102DD000E3CFA8CF81E0EFCF6AEE7EEF90E080E016
:102DE0000E94973360E082E090E00E94793360E0D7
:102DF00083E090E00E94793310921B0260E084E04F
:102E000090E00E94793360E082E290E00E947933A2
:102E100060E085E090E00E94793360E086E090E039
:102E20000E9479336FEF87E090E00E94793340E0B1
:102E300050E0BA0188E090E00E948B3360E08DE0C2
:102E400090E00E94793340E050E0BA0188E190E0E0
:102E50000E948B3360E087E190E00E94793340E08C
:102E600050E0BA018CE190E00E948B3370E060E0AA
:102E700080E290E00E94973340E050E0BA0188E1A0
:102E800090E00E948B3380E00E9464110E94251222
:102E900040E050E0BA018FE090E00E948B3340E0C8
:102EA00050E0BA0183E190E00C948B338F929F92B3
:102EB000AF92BF92CF92DF92EF92FF920F931F9348
:102EC000CF93DF9300D000D0CDB7DEB77C01DC011B
:102ED00013964D915C91149711966C9111978C916A
:102EE0000E948D05811193C161E0C7010E948C1081
:102EF0008C01F701828181112BC1D70112964C916F
:102F0000411168C10031BFE51B0709F407C2013157
:102F1000EFE51E0709F406C2C80197558F3F9105DA
:102F200011F008F04BC020910001022E000C330B71
:102F30002817390714F48093000126E1289F5001D7
:102F4000299FB00C1124950128573C4F6901D901E4
:102F500050964C935097F701928116968C91169744
:102F6000992309F4E1C11A961C930E9319978F5F68
:102F700016968C930E945505D6011E969C938E93AF
:102F80001D9780911A0217968C9317978091390498
:102F900090913804892B18968C931897ED91FC9199
:102FA0001197309739F054966D917C91C5018257F5
:102FB0009C4F09951093870300938603D7011296BF
:102FC0008C91882369F0C801815E9C45059740F487
:102FD0006FE1600F609342028CE090E00E947933D1
:102FE00017FF5EC0F7018281882309F459C00E944F
:102FF000E40C869581708093B601909142029130E5
:1030000029F4882319F089E30E94590E809138042D
:103010008093B5011092380480914202813009F406
:1030200095C1882309F48EC1823009F49EC1843091
:1030300009F4A2C18FE39CE90197F1F700C00000F9
:103040005801E894B7F84CE0C42ED12CC5010C2CE3
:1030500002C0969587950A94E2F78F7096EF980FC5
:10306000963008F48EC1805D0E94E10E94E0C91A8A
:10307000D108ACEFCA16AFEFDA0641F780914202F1
:10308000813009F484C1882309F47DC1823009F4B8
:103090007AC1843009F487C18091B50180933804E6
:1030A0008091550480FF35C00E9455056C01F701E1
:1030B0008281882311F180915D0182FF06C040E08A
:1030C000B60190E080E00E94F90D82E00E9487093D
:1030D0000B31FCE51F0709F468C10C312CE5120720
:1030E00009F4B5C190915D01892F8E7F90FF8160B9
:1030F0000A313CE5130709F4ADC10832110508F0A7
:10310000AFC10E31110508F0F2C10430110508F00D
:10311000BAC1033FFCE51F0709F421C208F009C248
:10312000083D3CE5130709F414C2093D4CE51407BA
:1031300009F427C2073D5CE5150709F03BC106E22B
:1031400021EE41EE67ED7CE5C7010E947A0E53C087
:10315000809100018F3F09F4D0CE68E8C62E63E06D
:10316000D62EB12CA12C9924939480910001082E85
:10317000000C990B8A159B050CF4BFCEF6018681D5
:10318000882309F1818592850817190739F4809100
:1031900086039091870308171907A9F0D6011F9697
:1031A0009C921F971C961C930E931B9751968C9183
:1031B000811103C0C6010E94F209C60106960E9451
:1031C000130A10923904BFEFAB1ABB0AE6E1CE0E28
:1031D000D11CCBCFC80182519F45409708F05AC5FA
:1031E0008FEF93E00E946B335EEED52ED00E09E296
:1031F00012E0882349F180911602877041F0D701CF
:1032000012968C91882319F082E00E94640B0F9033
:103210000F900F900F90DF91CF911F910F91FF9022
:10322000EF90DF90CF90BF90AF909F908F900895D8
:103230000115F4E01F07F9F2C8010E946B338111F8
:1032400001C0DA940F5F1F4FD110F2CF19821A829A
:103250001B821C82CC24CA9448012FEF821A920A46
:10326000C8010E946B3389831A82882321F281303E
:1032700009F048C0580132E0A30EB11CC4010E94FD
:103280006B33982E8A83882309F4B5CFC5010E9439
:103290006B33D82E8FEF890D833068F4580143E0EB
:1032A000A40EB11CDB82DD2021F0CE0101960E942C
:1032B0005E0F8501D1CF54E09512FBCF580184E019
:1032C000A80EB11CC80103960E946B33DD2009F4DF
:1032D00092CF882309F48FCF8150990BC89E90011B
:1032E000C99E300D1124AD2DA150BB0BCD01820F15
:1032F000931F0197F0F2EFE9FFE03197F1F700C07B
:103300000000F7CFCE0101960E945E0F5401D1CF8D
:1033100081E00E94800B0E944D0B6DCF81E00E94E6
:10332000580BF9CF82E0FBCF882309F447CEF9018F
:103330008189882309F442CEC50182579C4F0E949F
:10334000130A3CCE82EE0E94620D74CE88E193E0B7
:103350000E94470F80915804909159040E94780C64
:1033600088E193E00E944A0D65CE82EE0E94620DD4
:1033700087E50E94590E5ECE86EE0E94590E88E1C6
:10338000F8CF895A71CE82EE0E94F40C85CE8CE281
:103390000E94590E8091B601882309F47DCE89E3FD
:1033A0000E94590E79CE88E2FBCF80915D01816049
:1033B00080935D01F7013281332309F477C41092C1
:1033C000DD020230FCE51F0708F4A2C406312CE53B
:1033D000120730F0C8018A5F9C45099708F098C42D
:1033E0000E94B310909341028093400200313CE56B
:1033F000130709F474C108F007C108305CE515072C
:1034000009F463C108F0D6C004309CE5190709F43B
:1034100054C108F0BCC00230BCE51B0709F447C129
:1034200080914002826003301C4509F443C16091E1
:1034300040021091410284E090E00E947933612FB4
:1034400082E290E00E9479330E94F712D4CE8091FC
:103450005D018E7F80935D0182E00E948709AACF83
:103460000933110560F40D32110520F40B321105FA
:1034700009F04FCE8091550482FD4BCE08C0043632
:103480001105C1F346CE8091550484FD42CED7018B
:1034900012968C91882309F446C080915D0180FFCB
:1034A00038CE9091550491FD04C02091380421112B
:1034B00030CE95FF27C020915E0430915F04F60165
:1034C000E21BF30B9F0196FD02C081FD1BC0283C4F
:1034D0003105C0F420915C0430915D04021713079C
:1034E00089F481FD09C0802F0E94620D84CE8091F5
:1034F000550483FD0ECECBCF80913904826080933A
:103500003904F1CF10935D0400935C04D0925F0402
:10351000C0925E0480915D01846080935D0182E0D1
:103520000E94640B68CE40E0B601C8010E94F90D0C
:1035300062CE053F8CE51807F1F0B8F0063FACE528
:103540001A0709F037CF07E225EE46EE66EF7CE575
:10355000FBCD07E225EE45EE68ED7CE5F5CD06E214
:1035600021EE40EE63EF7CE5EFCD07E225EE44EE81
:1035700064EF7CE5E9CD06E221EE42EE65EF7CE505
:10358000E3CD08E221E045EE69ED7CE5DDCD8091FB
:10359000400280610630FCE51F0709F48BC0809172
:1035A0004002886007301C4508F484C080914002C6
:1035B000806280C0809140028D7F0C303CE5130713
:1035C00009F478C070F4809140028C600A305CE5A8
:1035D000150709F46FC008F47CC0809140028E7F0B
:1035E00069C080914002877F0E309CE5190709F47D
:1035F00061C0809140028B7F0F301C4508F45AC097
:10360000809140028F7E56C00B3FBCE51B0709F43A
:1036100058C030F50331FCE51F0709F468C078F4A1
:1036200001313CE5130709F45EC002311C4509F085
:10363000FECE0E94F712809140028F773BC0053189
:103640005CE5150709F45BC008F46FC08091410286
:1036500081600A3F1C4509F0EACE80934102E7CE23
:103660000F3FACE51A0709F446C088F48091410287
:103670008D7F0D3FECE51E0781F3809141028E7F27
:103680000E3F1C4550F3809141028360E6CF01302C
:103690002DE5120709F452C0F0F160E002301D453B
:1036A00009F0C5CE8EE090E00E947933C0CE8091C3
:1036B0004002816080934002BACE809140028460D3
:1036C000F9CF809141028260C8CF8091400280642E
:1036D000F1CF0E94F712809140028068EBCF809179
:1036E00040028F7DE7CF809140028F7BE3CF8091B6
:1036F0004002837FDFCF809141028C7FAECF8091EB
:10370000400282FB992790F921E0922790FB82F9F1
:1037100090FB83F9CFCF80914102982F90959170C3
:103720008E7F892B90FB81F998CF0E94F7129091A0
:103730004002892F97FB87F98058BCCF61E0B2CF58
:103740008091B701811104C089E20E945E0ADDC246
:1037500085E3FBCF0B35BDE51B0701F10C351D459E
:1037600009F0EAC28091410282FB882780F991E04A
:1037700089270E947C11E0C20E94F712FFEF24E328
:103780003CE0F15020403040E1F700C000000E94D2
:1037900029050E94EC162FCD81E0EBCF80E0E9CF28
:1037A000828100811181882369F0C8010E941A106A
:1037B000D82E682FC8010E94DC0AB8018D2D0E9406
:1037C000FE0FC0C2C8010E94AE0AD82EF6CF202F2D
:1037D0002F70B22E802F807F19F0B29490EFB92213
:1037E000CC20C9F0BB2069F080E2810F883010F056
:1037F00011110BC080913804B82AB09238040E948D
:10380000B609812F0E94620D16C080913904B82A32
:10381000B0923904F4CF812F0E94F40CBB2059F0F0
:1038200080E2810F883010F0111133C08B2D0E947F
:103830008E090E94B609A92DA850BB0B149710F44D
:103840000E94E40C812F902F0E940D0B811103C266
:103850001092B9011092B801AA20B1F0809116021D
:1038600080FD12C0D70112961C928595859585958D
:103870000E94800BC7010E94561780911602859501
:10388000859585950E94580B60E0C7010E948C10B9
:10389000BECC8B2D0E948709CCCF302F3F70B32E2A
:1038A000802F807F803219F0B29480EFB8221123EC
:1038B00021F1113009F46DC0CC2009F476C0DD206F
:1038C00009F448C020E0D7014C9111965C91119702
:1038D00012966C91129713967C91139714968C9173
:1038E0000E9463108091570481FD8BCFF701858181
:1038F00080FF87CF8F7085832DC0CC2069F1D110D8
:1039000006C080911A028B290E94BD0B94CF41E022
:10391000D41213C08091410282FD8DCF80911A0292
:10392000B82AB81609F487CF0E945505909319025A
:1039300080931802B0921A027ECF80915604823092
:1039400000F3D812DECF0E947C0980911302B812D6
:10395000B09213028B2DD8CFD11006C00E947C09E3
:103960008B2D0E94B60B67CF8091560451E0D51283
:103970000BC0823008F45FCF809138048B2109F4AA
:103980005ACF0E94580AEACF823040F38D11E6CF19
:1039900052CFCC2029F085E08D1508F44CCFDACF3A
:1039A00094E09D1508F447CFDBCFDD20C9F280916C
:1039B0005A0490915B04193321F08091580490913E
:1039C00059040E94780C812F0E94F40C34CF802F70
:1039D00086958695837069F0813009F02CCF812F10
:1039E000902F9370C11002C090E080E00E946105AA
:1039F00022CF812F902F9370C11002C090E080E001
:103A00000E94770518CF812FCC2039F00E944707FC
:103A10000E9405060E9405060ECF0E942C06FACFD2
:103A2000802F837091F5C11006CF412F42954695A6
:103A30004770440F440F812F8F70042E01C0880FF0
:103A40000A94EAF7212F207114FF07C02FE030E01D
:103A500001C0220F4A95EAF72095302F369536950A
:103A60003370323069F050F440911B02313029F04C
:103A7000822B84230E94A10BDECE842B822BFACFD3
:103A8000282B80911B028227F5CF8695CC2011F040
:103A9000802F8170882309F4CECE412F4295469520
:103AA0004770440F440F812F8F70042E01C0880F80
:103AB0000A94EAF7212F207114FF07C02FE030E0AD
:103AC00001C0220F4A95EAF72095302F369536959A
:103AD0003370323069F050F440918504313029F070
:103AE000822B84230E94490BA6CE842B822BFACFF3
:103AF000282B809185048227F5CFF02FFF70BF2EF1
:103B0000CC2029F08F2F0E94800B812FFDCE812F9A
:103B10000E94B60B8B2D0E94580B8DCE123F09F4DC
:103B20004AC060F4103F41F1113FE9F1CC2009F4A3
:103B30008DC0D11066CE802F8F713AC0133F09F42B
:103B40003FC0143F99F720915604223008F466C014
:103B500080911302CC2009F44EC00E948E098091FE
:103B6000160287708430C1F50E949509802F8F71ED
:103B70000E94580BA12C5FCECC2081F024E02D15A3
:103B800008F459CE202F2F7181E090E001C0880FFA
:103B90002A95EAF7909185048927A4CF35E03D1551
:103BA00008F449CEEFCF802F8F71CC2009F4B3CF2A
:103BB0000E94800B40CE802F8F71CC20C9F3ABCFF9
:103BC00080E0CC2009F48ECF81E0902F9F7101C05E
:103BD000880F9A95EAF786CF80915604D81650F64A
:103BE000402F4F71B42E842F0E94800B63E08B2DE9
:103BF0000E948B0BBFCF90913804982B9093380480
:103C0000D21640F00E9495090E94580A64E0802F65
:103C10008F71EECF81E00E94640BACCFCC2059F0C5
:103C2000502F5F71B52E852F0E94800B63E08B2D86
:103C30000E948B0B00CE81E00E94640B81E08D1509
:103C400008F0F9CD82E00E94640BF5CDD110AFCE23
:103C5000802F8F7160CFCC2019F0D110F9CDFCCD21
:103C6000D110F6CD20E0F70140815181628173814E
:103C700084810E9463108091570483FFE9CD809175
:103C8000B8019091B901029709F0E2CD812F0E940D
:103C9000590EDECD0031FFE51F0709F439CB0131A4
:103CA0002FE5120709F038C982E033CB06311C45F5
:103CB00009F042C080913804982F9A7A20915404D8
:103CC00020FF04C0482F447409F090E021FF04C095
:103CD000482F417109F090E022FF04C0482F487836
:103CE00009F090E023FF03C0827209F090E03323D3
:103CF00009F426CD81E0911101C080E08093B701E5
:103D000089E2911185E30E946B0A0E94B60973CA89
:103D100006315CE5150771F20A355DE5150709F412
:103D20003BCD08F017CD01159CE5190709F424CD0A
:103D30000E3D1C4509F42DCDF70186819781009732
:103D400009F42ECD0E94F407182F092FF701C28025
:103D5000D580D2943FE0D322809116028770A1F0E3
:103D6000AC2CCC2091F0892F807F803421F080E230
:103D7000810F883048F082E00E94640B8091160227
:103D80008770AA24A3948111A12C902E92942FE0E5
:103D90009222FBE0F91508F44ECDE92DF0E0E15355
:103DA000FC4C0C942833CF92DF92EF92FF920F934A
:103DB0001F93CF93DF938091CE01807F31F4809168
:103DC000CB01C091120281110BC0DF91CF911F91E5
:103DD0000F91FF90EF90DF90CF9008952196C770DC
:103DE0008091D1018C1789F3F090C901E090CA014C
:103DF000C090CC01D090CD01A6016E2D8F2D0E94D8
:103E00008D05D0E08111EACF8E0183E0000F111FF4
:103E10008A95E1F7F801EE52FE4F81818E11DECFD7
:103E200080818F11DBCF82818111D8CFE380F48034
:103E3000EC18FD0860E089EC91E00E948C10809104
:103E4000520490915304E816F90640F68091CE0191
:103E50008F7080618093CE01F801E952FE4F80811E
:103E60008F708061808389EC91E00E945617DF910A
:103E7000CF911F910F91FF90EF90DF90CF900C9416
:103E8000A40A5F926F927F928F929F92AF92BF929D
:103E9000CF92DF92EF92FF920F931F93CF93DF9316
:103EA000CDB7DEB765970FB6F894DEBF0FBECDBFB6
:103EB0008C0185E0F801DE01519601900D928A9502
:103EC000E1F7D8011296EC9089ECA82E81E0B82E8B
:103ED0008090CC019090CD01A4016091CA018091A5
:103EE000C9010E948D058111EAC1F801C380D48007
:103EF000F090CB01C601881999094C01FF2009F403
:103F00007AC15080618060E0C5010E948C10809170
:103F10005204909153047090CE018816990608F0CF
:103F20001DC14091CC015091CD01B090C901A0902C
:103F3000CA01872D807F6A2D09F0B7C08B2D0E94A2
:103F40008D05FE2C811139C0D80111968C911197E5
:103F50008A1133C08C918B1130C02091CF013091E8
:103F6000D00116968D919C912817390731F5E110F3
:103F700024C0872D8F7080618093CE0189EC91E001
:103F80000E9456178091CE01F80185838F2D65968A
:103F90000FB6F894DEBF0FBECDBFDF91CF911F915A
:103FA0000F91FF90EF90DF90CF90BF90AF909F90D8
:103FB0008F907F906F905F90089560E089EC91E022
:103FC0000E948C108091520490915304843F914040
:103FD000F8F0A601662D852D0E948D0581114CC03B
:103FE00081E08E2580FF1DC04E2D662D852D0E94FF
:103FF000840A8823B1F089EC91E00E94561788E08A
:10400000E9ECF1E0DF011D928A95E9F7F12CBECFD2
:1040100060E089EC91E00E948C108091570480FD53
:10402000D8CFA601662D852D0E948D05811126C051
:1040300081E08E25B82FB170CB2E80FF2DC04E2D84
:10404000662D852D0E94840AD82E811125C0598A9B
:104050006A8A89899A890E944910292F22952F708E
:10406000223070F0243098F49F7071F0F80195813F
:10407000907F51F4FD2C8ACF80E0B4CF80E0DACF7E
:104080009F7011F08823B1F3805E883098F3C801E7
:104090000E945617DC2CEECFEE2009F477CF8091EA
:1040A000CE0181608093CE01B1CF8B2D0E948D0512
:1040B000811124C0D80111968C9111978A111EC0CC
:1040C0008C918B111BC02091CF013091D00116969D
:1040D0008D919C9117972817390781F4E1100EC034
:1040E00015967C92C8010E94561788E0F801A9EC49
:1040F000B1E001900D928A95E1F748CFC8010E9486
:104100005510882339F1EE2029F18091CE018032BB
:10411000A0F02091C9013091CA013A8729871B86F6
:10412000DD86CC868E878091CF019091D001988BCF
:104130008F87CE0109960E94561788E0F801A9ECF6
:10414000B1E001900D928A95E1F70E94D31EFF2401
:10415000F3941CCFC8010E945617F9CF872D807F9A
:1041600009F449CF9090C9018090CA014091CC01D7
:104170005091CD01682D892D0E948D0581111CC0A3
:10418000F8018181881118C08081891115C02091A2
:10419000CF013091D001868197812817390761F4CA
:1041A000E1100AC07582C8010E94561788E0D50147
:1041B0001D928A95E9F7EACEC8010E94551088231E
:1041C00049F2EE2039F28091CE01803208F4B5CF69
:1041D0002091C9013091CA013A8329831B82DD8273
:1041E000CC828E838091CF019091D00198878F836C
:1041F000CE010196A0CF60E089EC91E00E948C1086
:1042000080915204909153048816990608F051C089
:10421000FE2CEE2009F49ECFE090C901D090CA0197
:104220004091CC015091CD016D2D8E2D0E948D05B8
:10423000811131C0F80181818D112DC080818E11D5
:104240002AC02091CF013091D00186819781281713
:10425000390709F560E089EC91E00E948C108091AB
:10426000570482FD42CF9091CE0190FD3ECF907FCA
:1042700009F43BCF8091CE01D80115968C93159708
:10428000903F09F42FCF982F907F905F8F70892BEC
:1042900015968C9327CFC8010E94551081114DCFE0
:1042A0008091CE0181608093CE01C8010E94561793
:1042B0006DCE88E0F50111928A95E9F767CEEE2080
:1042C00009F448CFC8010E945510F82E882309F43C
:1042D00041CF88E0F801A9ECB1E001900D928A95F8
:1042E000E1F78091C9019091CA010E9449100E9492
:1042F000D31E4CCECF93DF93CDB7DEB760970FB60A
:10430000F894DEBF0FBECDBF29873A874B875C8705
:104310006D877E878F87988BCE0109960E94411FFB
:1043200081112FC088E0FE013996DE0111960190BF
:104330000D928A95E1F74C855D856A8589850E9495
:104340008D0581111EC0A091D101B0E0CD01019673
:1043500087709927209112022817190609F193E016
:10436000AA0FBB1F9A95E1F7AE52BE4F98E0FE012F
:10437000319601900D929A95E1F78093D1010E94B8
:10438000A40A809112029091D101891317C06096FE
:104390000FB6F894DEBF0FBECDBFDF91CF91089569
:1043A0000E94F7121092D1011092120288E0E9ECFB
:1043B000F1E0DF011D928A95E9F7E3CFB8E08B9F2A
:1043C000C00111248E529E4F0E94411F8823F9F292
:1043D0008091120290E001968770992780931202D3
:1043E000D0CFEF92FF920F931F93CF93DF938091E3
:1043F000E102882361F0C091E0028CE0F82E809108
:10440000E102C81758F01092E1021092E002DF9129
:10441000CF911F910F91FF90EF900895EE24E394B8
:10442000EC0EE092E0020C2F10E0CF9DE001112491
:10443000CE51DD4F4B815C81698188810E948D0561
:1044400081111BC08E819F81892B21F488859985DC
:10445000019651F4288139814A815B816C817D818B
:104460008E819F810E947A21F09EF001F19EF00DD5
:104470001124EE51FD4F14821382CE2DC0CF109225
:1044800085031092840310925A01809183038093D4
:1044900082030E94C6050C94F1213F924F925F92D5
:1044A0006F927F928F929F92AF92BF92CF92DF9244
:1044B000EF92FF920F931F93CF93DF93C0918203EC
:1044C00097E0892E01E010E02CE0322E3EEF932E93
:1044D00044244394809183038C1315C00E94F121DE
:1044E000DF91CF911F910F91FF90EF90DF90CF90D0
:1044F000BF90AF909F908F907F906F905F904F9004
:104500003F900C94C605D0E0FE01EE0FFF1FE65869
:10451000FC4F80819181889ED001899EB00D11242D
:10452000AE5BBC4F14962C911497211157C050903C
:10453000E102E2EEF2E030E020E0712C5D012515B1
:1045400008F04AC0E284F384D501CD90DC906FEF8F
:104550007FEF612C462D50E0DA01AA0FBB1FAC0D96
:10456000BD1D0D90BC91A02D109731F0EA16FB06F1
:1045700009F4BA016394EECF6F3F7607A1F1D80139
:1045800002C0AA0FBB1F6A95E2F77A2AB80102C0DF
:10459000660F771F6A94E2F7AB0141505109741618
:1045A0001506F9F4329EF001339EF00D1124EE5100
:1045B000FD4F889ED001899EB00D1124AE5BBC4F8B
:1045C00012962D913C911397378326839082918286
:1045D0009187808715964C920E9498052196C3700A
:1045E00079CF148213822F5F3F4F3C96A8CF8F92D2
:1045F0009F92AF92BF92CF92DF92EF92FF920F9372
:104600001F93CF93DF93CDB7DEB72C970FB6F894F7
:10461000DEBF0FBECDBF8E010F5F1F4F88E0D801F8
:104620001D928A95E9F7F8016FE171E07E01B5E02E
:10463000EB0EF11CCC24C394D12C4B0150E040E094
:1046400030E0D4012D914D012F3FB9F0822F82959A
:104650008F7090E0DC0190968C9190E02F7002C0FA
:10466000959587952A95E2F780FD63C0C601042ED3
:1046700001C0880F0A94EAF7382B4F5F5F4F45302F
:104680005105F9F631936B5F7F4FEE15FF05A9F6E3
:1046900048E050E0B80186E492E00E943E337C019D
:1046A000892B41F088E0F801A6E4B2E001900D9278
:1046B0008A95E1F710914F02E114F104E1F181E0F4
:1046C00080931E020E94550590931D0280931C0248
:1046D00080911C0290911D020E943A05059790F06E
:1046E000E12FF0E0E25AFD4F8091460280838091F5
:1046F00047028183809148028283809149028383AB
:1047000010921E0281E090E0EF28C9F02C960FB6BF
:10471000F894DEBF0FBECDBFDF91CF911F910F91F7
:10472000FF90EF90DF90CF90BF90AF909F908F90D1
:10473000089580E0A1CF80911E028111C9CF0E940F
:10474000C10CD82EE0914F02882309F408C11986C4
:104750001A861B861C860E2F10E0025A1D4F809170
:104760003B02FE013D967F018A3008F05BC044E4C5
:1047700056E1BE01675F7F4FC8010E94820C88230B
:1047800009F468C044ED55E1BE01675F7F4FC80181
:104790000E94820C882309F45DC010923B02E091D4
:1047A0004E02F0E0AF01425A5D4FDE01199610E073
:1047B000FA019191AF018D91981731F09F0121502D
:1047C0003109F90180831D2DAE15BF0589F7809150
:1047D00000018F3F09F094C080915A01811194C06B
:1047E0008091550480FF1CC080915D0182FF18C03C
:1047F0000E94550520915E0430915F04AC01421B7C
:10480000530B20915B0130915C014217530740F03C
:1048100041E0BC0180915C0490915D040E94F90D1F
:10482000812F74CF80911F02909120020E943A053F
:10483000843F914008F09BCFA0914E02B0E0A25A75
:10484000BD4FFE0139961D921192EE16FF06D9F763
:104850001D2DBDCF80913B028F3F31F08F5F809344
:104860003B028A3008F49BCF0E94550590932002AA
:1048700080931F02E1CFD29EF001D39EF00D112450
:10488000E857FC4FA288B388A114B10421F4A0908A
:104890005204B0905304D29EC001D39E900D1124B7
:1048A0009C0128573C4F7901D90116968C91169797
:1048B0008823C9F01D968D919C910E943A05A816F7
:1048C000B90688F40D9D50011124F70181898111E9
:1048D00005C0C50188579C4F0E94F209C501825747
:1048E0009C4F0E94130A0F5F202F30E0809100013F
:1048F000082E000C990B821793070CF0BCCF6CCFDD
:1049000000E086E1D82EF0CF80918403909185035A
:10491000009709F465CF0E943A052091DE0230919C
:10492000DF022817390708F05BCF9091820380914E
:104930008303981759F00E944D221092DF021092C3
:10494000DE0210928503109284034ACF0E94F12167
:1049500010928503109284030E94C60541CFF0E0B7
:10496000E25AFD4FF89484E0AFE2B2E001900D927C
:104970008A95E1F78FE292E00E945D0380932E0218
:104980007894F894C0903302D0903402E0903502CD
:10499000F09036028091210290912202A091230290
:1049A000B0912402C816D906EA06FB06D1F0C092DF
:1049B0002102D0922202E0922302F09224020E946D
:1049C000C10C81110EC00E944905C61AD70AE80A17
:1049D000F90AC0923C02D0923D02E0923E02F0926F
:1049E0003F02789480E092CE2F923F924F925F9256
:1049F0006F927F928F929F92AF92BF92CF92DF92EF
:104A0000EF92FF920F931F93CF93DF93CDB7DEB753
:104A100069970FB6F894DEBF0FBECDBF942F498BB8
:104A2000252F5A8B6B8B7C8B8D8B4C895D89622FEC
:104A3000892F0E948D05811109C08091B801909144
:104A4000B90101969093B9018093B8018B898111C6
:104A5000109239041D861E861F86188A85E0FE0185
:104A60007196DE01199601900D928A95E1F7809179
:104A70003C0490913D04892BC1F00E945505209182
:104A8000140230911502821B930B20913C0430914B
:104A90003D048217930720F08091160282FFF5C132
:104AA0000E949C0981110E947C094C855D856A8564
:104AB00089850E948D05811111C061E0CE010996A2
:104AC0000E948C106C018B8527EFC2162CE5D20654
:104AD00081F4882321F181E080935A0129853A8568
:104AE0004B855C856D857E858F8598890E947A21AE
:104AF000C5C038EFC3163CE5D30629F4882379F006
:104B00000E943F22EBCF49EFC4164CE5D40639F49E
:104B1000882329F080915A018111F2CFDCCF02E481
:104B200013E0512CB12CA12C22242394312C2EEFF4
:104B3000422EF8014081518188248A94982C20E0EB
:104B4000822F90E0FC01EE0FFF1FE40FF51F608144
:104B500071816115710531F0C616D70609F44C0153
:104B60002F5FEECFF12CFFEF8F169F0609F448C0A0
:104B7000F8014481F0905A018F2D411180E0F82F07
:104B8000F170FF2EF801E58086819B85992309F459
:104B90000CC1FF2009F409C16090500470905104C9
:104BA000E11012C0A10101C0440F8A94EAF7842BDE
:104BB00086838091DE029091DF028615970520F4AE
:104BC0007092DF026092DE02C10102C0880F991F5D
:104BD0002A95E2F70197F80126812817190681F432
:104BE0008091840390918503009709F460C00E942E
:104BF0003A056816790608F05AC021E0F8012483C6
:104C00005F28FFEFAF1ABF0A095F1F4F28E0A21607
:104C1000B10409F08ECF8B85882309F421C155207A
:104C200009F41EC10E945505909385038093840367
:104C30008091E102883010F591E0980F9093E102A5
:104C400098E0FE013996DE01119601900D929A9539
:104C5000E1F73CE0839FC00111248E519D4F28E075
:104C6000FE013196DC0101900D922A95E1F72FEFBC
:104C70003FEFFC0131872087D386C28669960FB645
:104C8000F894DEBF0FBECDBFDF91CF911F910F9182
:104C9000FF90EF90DF90CF90BF90AF909F908F905C
:104CA0007F906F905F904F903F902F9008958091EC
:104CB000820350918303982FF0E0E0E0851314C045
:104CC00090938203E017F10709F49ACF90E0FC017A
:104CD000EE0FFF1FE658FC4FB182A0820196837051
:104CE0009927809383038CCF682E712CF301EE0FEC
:104CF000FF1FE658FC4F2081318147E0429FD001E1
:104D0000439FB00D1124AE5BBC4F6D917C91119708
:104D1000798F688F40E020E030E0E32FF0E0EE0F85
:104D2000FF1F688D798DE60FF71F808091808114B9
:104D30009104E1F0F8010190F081E02DFF8BEE8B02
:104D400020E005C08616970609F44F2D2F5FE22F4D
:104D5000F0E0EE0FFF1F6E897F89E60FF71F60817D
:104D600071816115710571F73F5FD7CF4423D1F091
:104D7000F801231708F0FD0121E024830E171F0717
:104D800021F490938203F42E3BCF981305C0AE1705
:104D9000BF0711F49F5F937093012F5F3F4F822FE6
:104DA00083708CCFF0E0E0E0F7CF90E0E1101FC01F
:104DB000B10102C0660F771F2A95E2F79B012150CF
:104DC00031098217930731F4442309F447C0C50120
:104DD0000E949805C10101C0880F8A94EAF7982FB4
:104DE0009095F801868189238683FE2C09CF9C014A
:104DF000082C02C0359527950A94E2F7A901417065
:104E00005527BC016150710986239723892B11F521
:104E1000452B01F1F80182819381892BC1F01B821E
:104E20001C821D821E8249824A820E945505816031
:104E3000582F9D838C83F801828193818F8398877B
:104E400029813A814B816D817E810E947A21F8010E
:104E50001582C0CFF22FF170EF2EBCCFEF2CBACF5E
:104E60009091820380918303981731F00E944D2224
:104E7000552009F433CE02CF0E94F1211092850310
:104E8000109284030E94C605F3CF82E00E94640B57
:104E900007CECF93DF9300D000D00F92CDB7DEB70F
:104EA0009093D8028093D702811520E2920748F4AC
:104EB0000F900F900F900F900F90DF91CF910C9467
:104EC0004A0D8EEF89838A831B820E94550581607B
:104ED000782F9D838C8349815A816B818D810F90BE
:104EE0000F900F900F900F90DF91CF910C94F424BE
:104EF0000F931F93CF93DF938C01EB016BE772E06D
:104F00008C2F0E943412892BA1F480915804909127
:104F100059040E94780CDD27CD58DD4F8881F801B7
:104F200010821882833009F148F4813059F08230C0
:104F300081F0DF91CF911F910F9108958430D1F0CE
:104F40008530B9F780917B0290917C02009789F3BC
:104F500006C080917D0290917E02009799F3DF91C7
:104F6000CF911F910F910C94492780917F029091CE
:104F70008002F3CF8091810290918202009779F7AD
:104F800020917B0230917C0280917D0290917E0283
:104F900021153105D9F2009711F7C901E0CFCF9360
:104FA000DF9300D000D00F92CDB7DEB79093D80238
:104FB0008093D702811520E2920748F40F900F905A
:104FC0000F900F900F90DF91CF910C94470F8EEFC1
:104FD00089838A8381E08B830E9455058160782FC5
:104FE0009D838C8349815A816B818D810F900F90B5
:104FF0000F900F900F90DF91CF910C94F424CF93EA
:10500000DF93EC010E94CF278091580490915904BE
:105010000E94780CCE01DF91CF910C9449270F9319
:105020001F93CF93DF938C01862F6BE772E00E9472
:105030003412892BC9F4C0917B02D0917C02209755
:1050400099F0F8018081833069F4CE010E94FF2736
:10505000CE010E94FF27CE01DF91CF911F910F91CA
:105060000C94FF278430B8F7DF91CF911F910F91F7
:1050700008950F931F93CF93DF938C01EB016BE7A0
:1050800072E08C2F0E943412892B09F064C0FE015B
:10509000FF27D8018C91ED58FD4F8130D9F4199636
:1050A0009C911997992311F080830CC01A969C91BA
:1050B0009923D1F382E0808380917D0290917E02DA
:1050C0000097D9F480917B0290917C02009709F4BB
:1050D00042C013C08230E9F519968C91199781115D
:1050E0002DC01A968C9181110EC083E0808380912F
:1050F0007F0290918002009719F1DF91CF911F916B
:105100000F910C94CF2784E080838091810290914D
:105110008202009791F780917B0290917C02009728
:10512000F9F00E94FF2780917D0290917E02009706
:1051300021F780917B0290917C02DFCF85E0808314
:1051400080917B0290917C02009729F00E94FF27BA
:10515000F0CF86E08083DF91CF911F910F9108956A
:1051600080917D0290917E02B1CF1F920F920FB677
:105170000F9211242F933F934F935F936F937F93DD
:105180008F939F93AF93BF93CF93DF93EF93FF934F
:10519000D091E900DF708091EC00C82FC17080FDD4
:1051A000C0E81092E9008091F000877F8093F000C2
:1051B00078940E9402131092E9008091F0008860B8
:1051C0008093F000CD2BCF70C093E900FF91EF9159
:1051D000DF91CF91BF91AF919F918F917F916F910F
:1051E0005F914F913F912F910F900FBE0F901F90A5
:1051F00018951F920F920FB60F9211242F933F9381
:105200004F935F936F937F938F939F93AF93BF93CE
:10521000EF93FF938091E10082FF09C08091E2004B
:1052200082FF05C08091E1008B7F8093E100809137
:10523000DA0080FF24C08091D80080FF20C08091D8
:10524000DA008E7F8093DA008091D90080FF9BC0C6
:1052500080E189BD82E189BD09B400FEFDCF81E016
:105260008093840480916E04811109C00E947403AC
:105270000E9467048091E20084608093E200809144
:10528000E10080FF17C08091E20080FF13C0809191
:10529000E2008E7F8093E2008091E2008061809343
:1052A000E2008091D80080628093D80019BC85E02C
:1052B000809384048091E10084FF29C08091E20002
:1052C00084FF25C080E189BD82E189BD89B5982F21
:1052D000917080FFFBCF8091D8008F7D8093D800A4
:1052E0008091E1008F7E8093E1008091E2008F7ECB
:1052F0008093E2008091E20081608093E2008091DF
:105300007B04882309F445C084E080938404809161
:10531000E10083FF27C08091E20083FF23C08091DA
:10532000E100877F8093E10082E080938404109203
:105330007B048091E1008E7F8093E1008091E20008
:105340008E7F8093E2008091E20080618093E20092
:1053500042E060E080E00E9435048091F0008860C7
:105360008093F000FF91EF91BF91AF919F918F914A
:105370007F916F915F914F913F912F910F900FBE51
:105380000F901F90189519BC1092840410926E040F
:1053900076CF8091E30087FD93E090938404B7CFAC
:1053A00078941F921FB61F9211248F939F93AF93EF
:1053B000BF938091670490916804A0916904B091B3
:1053C0006A040196A11DB11D80936704909368043F
:1053D000A0936904B0936A04BF91AF919F918F919C
:1053E0001F901FBE1F9018951F921FB61F92112469
:1053F0008F939F93AF93BF9380916604811113C0E5
:105400008091670490916804A0916904B0916A0446
:105410004196A11DB11D8093670490936804A093E9
:105420006904B0936A04BF91AF919F918F911F90CF
:105430001FBE1F901895CDB7DEB7ED970FB6F89445
:10544000DEBF0FBECDBF84B7877F84BF0FB6F89491
:10545000A895809160008861809360001092600040
:105460000FBE80E890E00FB6F894809361009093AF
:1054700061000FBE85B7806885BF85B7806885BF2E
:105480008FEA97E09093AB018093AA010E944812A3
:105490000E949E120E94A90F0E9474030E9467043A
:1054A0008091E20084608093E2007894809184048B
:1054B0008823A1F01091E9001F709091EC00892FD2
:1054C000817090FD80E8182B1092E9008091E8002F
:1054D00083FD0E9402131F701093E90082E084BDD7
:1054E00093E095BD9AEF97BD80936E0010923C02B9
:1054F00010923D0210923E0210923F020E949A10BA
:10550000811102C00E9425128EE090E00E946B3350
:1055100091E0811101C090E0909347010E94C10C7D
:1055200081110E943F3180914701811149C0FE01E4
:10553000759684E1DF011D928A95E9F784EF8983EE
:1055400085EF8A8386EF8B8387EF8C8386EC8D8350
:1055500083E98E8386E38F8382E3888783E3898769
:1055600081E38A8787E98B8786E68C8784E98D8744
:1055700080E98E8781E98F8785E3888B84E3898B37
:105580008FEF8A8B8B8B8C8B7497AFE1B1E0CE0160
:10559000899620812C93218111962C931197228139
:1055A00012962C931297238113962C931397248190
:1055B00014962C93149735961596E817F90749F722
:1055C0008091470194E0811190E090934F0284E034
:1055D000891B80934E022FE131E061E070E0D90138
:1055E00050E040E08D918F3F91F0E82FE295EF7011
:1055F000F0E0F1A08F708B0101C0000F8A95EAF7EF
:10560000902F90959F2191A382A1802B82A34F5F21
:105610005F4F4530510531F72B5F3F4FB1E02734E5
:105620003B07E9F6E6E4F2E08EE492E0AEE5B2E0B4
:1056300011921D928E179F07D9F790E080E00E948B
:1056400073338A3E9E4F21F40E949A10811102C04A
:105650000E94EC1682E090E00E946B33809351022E
:105660000E94B31090934102809340020E94F7225F
:105670008FE39CE90197F1F700C000000E94F72238
:1056800080915E0280FF08C06FEF7FEF90E080E0C6
:105690000E9497330E94290583E090E00E946B33BB
:1056A0000E94A10B8CE090E00E946B3390E0B0E090
:1056B000A0E08093420290934302A0934402B093EF
:1056C00045020E94C10C811102C00E94423188E44F
:1056D00091E090936304809362048EE592E0A8E0E9
:1056E000A80FADAF8091840400E112E1853009F488
:1056F00010C10E94F72281110E944905A2E5B2E083
:10570000EEE5F2E010E000E0C02EE1908D918E1504
:1057100009F40EC18E25D12CFF24F394982F9F21DC
:1057200009F401C10E94C10C882399F0DBAACCAA1C
:10573000EF2081E009F480E08DAB0E945505816087
:10574000782F9FAB8EAB4BA95CA96DA98FA90E9446
:10575000F424F801EE5AFD4F8081F826F08286E0AD
:10576000EDE6F2E08E010F5F1F4FD80101900D9220
:105770008A95E1F7C0906F02D0907002E0907102BC
:10578000F090720210926F021092700210927102E9
:10579000109272028C2D8D2991F080916B02909164
:1057A0006C020E943A05AC0190916702992309F4BA
:1057B000D6C0809158018417150608F4DEC08E2DDE
:1057C0008F2991F08091690290916A020E943A05B6
:1057D000AC0190916602992309F40EC180915401A5
:1057E0008417150608F416C180916F02909170021B
:1057F000892B90917102892B90917202892B11F063
:105800000E94050686E0F801ADE6B2E001900D9237
:105810008A95E1F70E94E40C90915002891721F0DB
:105820000E94E40C8093500280918404843009F03B
:1058300059CF83E08093E9008091E80082FF52CF46
:105840008091E80090E085FF0AC00E949303E0E2A7
:10585000EE2EF12C6801882309F425C191E0809196
:10586000E8008B778093E800992309F43BCFE09020
:10587000D902F090DA028981E114F10409F421C11E
:105880008E3F09F0A2C18A81833020F08550833099
:1058900008F09BC1EA81EE3008F097C1F0E0E552D4
:1058A000FC4C0C94283380918404843021F11092B4
:1058B0006604E8E1F0E020E40FB6F894A895E093E0
:1058C00060000FBE2093600083B7817F846083BF38
:1058D00083B7816083BF7894889583B78E7F83BFB9
:1058E0000FB6F894A895809160008861809360005D
:1058F000109260000FBE80917A04882351F00E94BC
:10590000F722EEE5F2E08191811102C43DAD3E1334
:10591000FACF80918404853009F4C5CF0E94F71234
:105920000E94E40CE6CED394FF0C45E0D412F6CEF0
:105930000F5F1F4F0830110509F0E6CE8FEF88AFDB
:1059400089AF1AAE0E9455058160782F9CAF8BAF4E
:1059500048AD59AD6AAD8CAD0E94F42400CF2091C2
:1059600059018AE0289F900111242417350708F077
:1059700026CF9F5F9093670202C09F3FD1F7CC2054
:1059800059F00E94E8069FEF1C140CF491E0899FE7
:10599000802D112480936F02DD2059F00E94E806CB
:1059A0009FEF1D140CF491E0899F802D11248093AA
:1059B000700230916F02332309F401CF20917002FD
:1059C000222309F4FCCE45EB3403C00111249923B2
:1059D00059F090936F0245EB240390011124332377
:1059E00039F030937002EBCE81E080936F02F3CFF9
:1059F00081E080937002E3CE209155018AE0289FD8
:105A0000900111242417350708F0EECE9F5F909384
:105A1000660202C09F3FD1F7EE2059F00E94AF0608
:105A20009FEF1E140CF491E0899F802D1124809328
:105A30007102FF2059F00E94AF069FEF1F140CF473
:105A400091E0899F802D1124809372023091710220
:105A5000332309F4C9CE20917202222309F4C4CE63
:105A600045EB3403C0011124992359F0909371023E
:105A700045EB240390011124332339F03093720253
:105A8000B3CE81E080937102F3CF81E08093720204
:105A9000ABCE8091F100D6018D936D01B1E0EB1A90
:105AA000F10809F4DBCE8091E80085FDF2CF80910A
:105AB000E8008B778093E8000E949303882399F392
:105AC000CDCE8C3009F4CCC048F5843009F4AFC099
:105AD00050F4823009F468C008F09AC0813009F4AB
